{
  "abi": [
    {
      "inputs": [
        {
          "internalType": "address",
          "name": "_axiomV2QueryAddress",
          "type": "address"
        },
        {
          "internalType": "uint64",
          "name": "_callbackSourceChainId",
          "type": "uint64"
        },
        {
          "internalType": "address",
          "name": "_auctioneer",
          "type": "address"
        }
      ],
      "stateMutability": "nonpayable",
      "type": "constructor"
    },
    {
      "anonymous": false,
      "inputs": [
        {
          "indexed": false,
          "internalType": "address",
          "name": "OldAuctioneer",
          "type": "address"
        },
        {
          "indexed": false,
          "internalType": "address",
          "name": "NewAuctioneer",
          "type": "address"
        }
      ],
      "name": "ActioneerUpdated",
      "type": "event"
    },
    {
      "anonymous": false,
      "inputs": [
        {
          "indexed": true,
          "internalType": "address",
          "name": "challenger",
          "type": "address"
        },
        {
          "indexed": false,
          "internalType": "uint256",
          "name": "auctionId",
          "type": "uint256"
        },
        {
          "indexed": false,
          "internalType": "uint256",
          "name": "punishmentAmount",
          "type": "uint256"
        },
        {
          "indexed": false,
          "internalType": "bytes32[]",
          "name": "axiomResults",
          "type": "bytes32[]"
        }
      ],
      "name": "AuctioneerPunished",
      "type": "event"
    },
    {
      "anonymous": false,
      "inputs": [
        {
          "indexed": false,
          "internalType": "bytes32",
          "name": "axiomCallbackQuerySchema",
          "type": "bytes32"
        }
      ],
      "name": "AxiomCallbackQuerySchemaUpdated",
      "type": "event"
    },
    {
      "anonymous": false,
      "inputs": [
        {
          "indexed": true,
          "internalType": "uint64",
          "name": "sourceChainId",
          "type": "uint64"
        },
        {
          "indexed": false,
          "internalType": "address",
          "name": "callerAddr",
          "type": "address"
        },
        {
          "indexed": true,
          "internalType": "bytes32",
          "name": "querySchema",
          "type": "bytes32"
        },
        {
          "indexed": true,
          "internalType": "bytes32",
          "name": "queryHash",
          "type": "bytes32"
        }
      ],
      "name": "AxiomV2Call",
      "type": "event"
    },
    {
      "anonymous": false,
      "inputs": [
        {
          "indexed": false,
          "internalType": "uint256",
          "name": "auctionId",
          "type": "uint256"
        },
        {
          "indexed": false,
          "internalType": "uint256",
          "name": "sellingAmount",
          "type": "uint256"
        },
        {
          "indexed": false,
          "internalType": "uint256",
          "name": "buyingAmount",
          "type": "uint256"
        },
        {
          "indexed": false,
          "internalType": "address",
          "name": "winningAddress",
          "type": "address"
        },
        {
          "indexed": false,
          "internalType": "uint256",
          "name": "blockNumber",
          "type": "uint256"
        }
      ],
      "name": "PublishWinner",
      "type": "event"
    },
    {
      "inputs": [],
      "name": "EXPONENT_CONSTANT",
      "outputs": [
        {
          "internalType": "uint256",
          "name": "",
          "type": "uint256"
        }
      ],
      "stateMutability": "view",
      "type": "function"
    },
    {
      "inputs": [
        {
          "internalType": "uint256",
          "name": "",
          "type": "uint256"
        }
      ],
      "name": "auctionIdToWinnerData",
      "outputs": [
        {
          "internalType": "uint256",
          "name": "auctionId",
          "type": "uint256"
        },
        {
          "internalType": "uint256",
          "name": "sellingAmount",
          "type": "uint256"
        },
        {
          "internalType": "uint256",
          "name": "buyingAmount",
          "type": "uint256"
        },
        {
          "internalType": "address",
          "name": "winningAddress",
          "type": "address"
        }
      ],
      "stateMutability": "view",
      "type": "function"
    },
    {
      "inputs": [],
      "name": "auctioneer",
      "outputs": [
        {
          "internalType": "address",
          "name": "",
          "type": "address"
        }
      ],
      "stateMutability": "view",
      "type": "function"
    },
    {
      "inputs": [],
      "name": "axiomCallbackQuerySchema",
      "outputs": [
        {
          "internalType": "bytes32",
          "name": "",
          "type": "bytes32"
        }
      ],
      "stateMutability": "view",
      "type": "function"
    },
    {
      "inputs": [
        {
          "internalType": "uint64",
          "name": "sourceChainId",
          "type": "uint64"
        },
        {
          "internalType": "address",
          "name": "callerAddr",
          "type": "address"
        },
        {
          "internalType": "bytes32",
          "name": "querySchema",
          "type": "bytes32"
        },
        {
          "internalType": "bytes32",
          "name": "queryHash",
          "type": "bytes32"
        },
        {
          "internalType": "bytes32[]",
          "name": "axiomResults",
          "type": "bytes32[]"
        },
        {
          "internalType": "bytes",
          "name": "callbackExtraData",
          "type": "bytes"
        }
      ],
      "name": "axiomV2Callback",
      "outputs": [],
      "stateMutability": "nonpayable",
      "type": "function"
    },
    {
      "inputs": [],
      "name": "axiomV2QueryAddress",
      "outputs": [
        {
          "internalType": "address",
          "name": "",
          "type": "address"
        }
      ],
      "stateMutability": "view",
      "type": "function"
    },
    {
      "inputs": [],
      "name": "callbackSourceChainId",
      "outputs": [
        {
          "internalType": "uint64",
          "name": "",
          "type": "uint64"
        }
      ],
      "stateMutability": "view",
      "type": "function"
    },
    {
      "inputs": [
        {
          "internalType": "address",
          "name": "",
          "type": "address"
        }
      ],
      "name": "hasClaimed",
      "outputs": [
        {
          "internalType": "bool",
          "name": "",
          "type": "bool"
        }
      ],
      "stateMutability": "view",
      "type": "function"
    },
    {
      "inputs": [
        {
          "internalType": "uint256",
          "name": "auctionId",
          "type": "uint256"
        },
        {
          "internalType": "uint256",
          "name": "sellingAmount",
          "type": "uint256"
        },
        {
          "internalType": "uint256",
          "name": "buyingAmount",
          "type": "uint256"
        },
        {
          "internalType": "bytes",
          "name": "signature",
          "type": "bytes"
        },
        {
          "internalType": "address",
          "name": "winningAddress",
          "type": "address"
        }
      ],
      "name": "publishWinner",
      "outputs": [],
      "stateMutability": "nonpayable",
      "type": "function"
    },
    {
      "inputs": [
        {
          "internalType": "address",
          "name": "",
          "type": "address"
        }
      ],
      "name": "querySubmitted",
      "outputs": [
        {
          "internalType": "bool",
          "name": "",
          "type": "bool"
        }
      ],
      "stateMutability": "view",
      "type": "function"
    },
    {
      "inputs": [
        {
          "internalType": "address",
          "name": "_auctioneer",
          "type": "address"
        }
      ],
      "name": "updateAuctioneer",
      "outputs": [],
      "stateMutability": "nonpayable",
      "type": "function"
    }
  ],
  "bytecode": {
    "object": "0x60a060405234801561001057600080fd5b50604051610c82380380610c8283398101604081905261002f91610094565b6001600160a01b03928316608052600080546001600160401b0319166001600160401b039390931692909217909155600280546001600160a01b031916919092161790556100e6565b80516001600160a01b038116811461008f57600080fd5b919050565b6000806000606084860312156100a957600080fd5b6100b284610078565b60208501519093506001600160401b03811681146100cf57600080fd5b91506100dd60408501610078565b90509250925092565b608051610b7b6101076000396000818160e501526102540152610b7b6000f3fe608060405234801561001057600080fd5b50600436106100a95760003560e01c8063796a807611610071578063796a80761461017a578063a023bb051461018d578063ab72fc09146101f4578063b4c32f7d14610217578063cd1cd7251461022d578063ede7a7f51461023657600080fd5b80630a50ec5c146100ae5780632a75d3be146100e057806351b17b291461011f5780635ec2c7bf1461013457806373b2e80e14610147575b600080fd5b6000546100c29067ffffffffffffffff1681565b60405167ffffffffffffffff90911681526020015b60405180910390f35b6101077f000000000000000000000000000000000000000000000000000000000000000081565b6040516001600160a01b0390911681526020016100d7565b61013261012d3660046108f9565b610249565b005b600254610107906001600160a01b031681565b61016a6101553660046109d8565b60046020526000908152604090205460ff1681565b60405190151581526020016100d7565b6101326101883660046109d8565b610346565b6101cb61019b3660046109fa565b6005602052600090815260409020805460018201546002830154600390930154919290916001600160a01b031684565b604080519485526020850193909352918301526001600160a01b031660608201526080016100d7565b61016a6102023660046109d8565b60036020526000908152604090205460ff1681565b61021f600181565b6040519081526020016100d7565b61021f60015481565b610132610244366004610a29565b6103a7565b336001600160a01b037f000000000000000000000000000000000000000000000000000000000000000016146102e05760405162461bcd60e51b815260206004820152603160248201527f4178696f6d5632436c69656e743a2063616c6c6572206d757374206265206178604482015270696f6d563251756572794164647265737360781b60648201526084015b60405180910390fd5b6040516001600160a01b03881681528590879067ffffffffffffffff8b16907f8c4d7c8c39bd8567a2e06cd74f2e95db120e4aeeb5092fca49fb9f3ea13f0fc19060200160405180910390a461033c888888888888888861043b565b5050505050505050565b600280546001600160a01b038381166001600160a01b031983168117909355604080519190921680825260208201939093527f5cf45807af6eab466ae23fdd675c57eaf92bf4dff8d98ab5db4f93f54744554b910160405180910390a15050565b6002546001600160a01b031633146104275760405162461bcd60e51b815260206004820152603760248201527f41756374696f6e6565724368616c6c656e67653a204f6e6c792061756374696f60448201527f6e6565722063616e207075626c6973682077696e6e657200000000000000000060648201526084016102d7565b6104348585858585610725565b5050505050565b60008484600081811061045057610450610b08565b9050602002013560001c905060008585600181811061047157610471610b08565b9050602002013560001c905060008686600281811061049257610492610b08565b9050602002013560001c90506000878760038181106104b3576104b3610b08565b9050602002013560001c90506000888860048181106104d4576104d4610b08565b9050602002013560001c90506000898960058181106104f5576104f5610b08565b9050602002013560001c90508c6001600160a01b0316866001600160a01b03161461057e5760405162461bcd60e51b815260206004820152603360248201527f41756374696f6e6565724368616c6c656e67653a20496e76616c6964207573656044820152721c881859191c995cdcc8199bdc88195d995b9d606a1b60648201526084016102d7565b6148536105914363ffffffff8816610b1e565b11156106205760405162461bcd60e51b815260206004820152605260248201527f41756374696f6e6565724368616c6c656e67653a20426c6f636b206e756d626560448201527f7220666f72207472616e73616374696f6e2072656365697074206d757374206260648201527165206c657373207468616e2033206461797360701b608482015260a4016102d7565b600084815260056020526040902060010154831461069b5760405162461bcd60e51b815260206004820152603260248201527f41756374696f6e6565724368616c6c656e67653a2053656c6c696e6720616d6f6044820152710eadce840c8decae640dcdee840dac2e8c6d60731b60648201526084016102d7565b60008481526005602052604090206002015482116107155760405162461bcd60e51b815260206004820152603160248201527f41756374696f6e6565724368616c6c656e67653a20427579696e6720616d6f756044820152700dce840c8decae640dcdee840dac2e8c6d607b1b60648201526084016102d7565b5050505050505050505050505050565b6001600160a01b0381166107965760405162461bcd60e51b815260206004820152603260248201527f41756374696f6e6565724368616c6c656e67653a2057696e6e696e67206164646044820152710726573732063616e6e6f74206265203078360741b60648201526084016102d7565b604080516020808201879052818301869052606084811b6bffffffffffffffffffffffff191681840152835180840360540181526074840180865281519184019190912060f4850186528a8252609485018a815260b486018a81526001600160a01b03808a1660d490980188815260008f8152600589528a9020955186559251600186015590516002850155905160039093018054939091166001600160a01b03199093169290921790915584518a81529283018990529382018790528101919091524360808201527f573f2df6684fe332379c83fff9268aeb6523c26466925f7f5a930702aa9e64829060a00160405180910390a1505050505050565b80356001600160a01b03811681146108ab57600080fd5b919050565b60008083601f8401126108c257600080fd5b50813567ffffffffffffffff8111156108da57600080fd5b6020830191508360208285010111156108f257600080fd5b9250929050565b60008060008060008060008060c0898b03121561091557600080fd5b883567ffffffffffffffff808216821461092e57600080fd5b81995061093d60208c01610894565b985060408b0135975060608b0135965060808b013591508082111561096157600080fd5b818b0191508b601f83011261097557600080fd5b81358181111561098457600080fd5b8c60208260051b850101111561099957600080fd5b6020830196508095505060a08b01359150808211156109b757600080fd5b506109c48b828c016108b0565b999c989b5096995094979396929594505050565b6000602082840312156109ea57600080fd5b6109f382610894565b9392505050565b600060208284031215610a0c57600080fd5b5035919050565b634e487b7160e01b600052604160045260246000fd5b600080600080600060a08688031215610a4157600080fd5b853594506020860135935060408601359250606086013567ffffffffffffffff80821115610a6e57600080fd5b818801915088601f830112610a8257600080fd5b813581811115610a9457610a94610a13565b604051601f8201601f19908116603f01168101908382118183101715610abc57610abc610a13565b816040528281528b6020848701011115610ad557600080fd5b826020860160208301376000602084830101528096505050505050610afc60808701610894565b90509295509295909350565b634e487b7160e01b600052603260045260246000fd5b81810381811115610b3f57634e487b7160e01b600052601160045260246000fd5b9291505056fea26469706673582212206c4e06289d6d771eca369489b63fed69546d0b662e268cc304d7d9410d5b0c8c64736f6c63430008130033",
    "linkReferences": {}
  },
  "methodIdentifiers": {
    "EXPONENT_CONSTANT()": "b4c32f7d",
    "auctionIdToWinnerData(uint256)": "a023bb05",
    "auctioneer()": "5ec2c7bf",
    "axiomCallbackQuerySchema()": "cd1cd725",
    "axiomV2Callback(uint64,address,bytes32,bytes32,bytes32[],bytes)": "51b17b29",
    "axiomV2QueryAddress()": "2a75d3be",
    "callbackSourceChainId()": "0a50ec5c",
    "hasClaimed(address)": "73b2e80e",
    "publishWinner(uint256,uint256,uint256,bytes,address)": "ede7a7f5",
    "querySubmitted(address)": "ab72fc09",
    "updateAuctioneer(address)": "796a8076"
  },
  "id": 0
}